02RETORNO01COBRANCA       00000000000005078512EMAIS PARQUE OLIMPICO 2 EMPREE237BRADESCO       0607210160000000648                                                                                                                                                                                                                                                                          080721         000001
1022014714700011600000090349901950843200001130020000061422019 00000000000000049509000000000000000000000000090224061912-11001  00000000000000049509260619000000009011923704424  000000000008000000000000000000000000000000000000000000000000000000000000000000000000000000000000000000000000000000000                          0000000000                                                                  000002
1022014714700011600000090349901950843200001230820000061432019 00000000000000049517000000000000000000000000090224061927-16001  00000000000000049517010719000000007879623704424  000000000008000000000000000000000000000000000000000000000000000000000000000000000000000000000000000000000000000000000                          0000000000                                                                  000003
1022014714700011600000090349901950843200002230820000061442019 00000000000000049525000000000000000000000000090224061918-17001  00000000000000049525250619000000005894023704424  000000000008000000000000000000000000000000000000000000000000000000000000000000000000000000000000000000000000000000000                          7600000000                                                                  000004
1022014714700011600000090349901950843200002230820000061452019 00000000000000049533000000000000000000000000090224061918-18001  00000000000000049533260619000000006019823704424  000000000008000000000000000000000000000000000000000000000000000000000000000000000000000000000000000000000000000000000                          7600000000                                                                  000005
1022014714700011600000090349901950843200002231420000061462019 00000000000000049541000000000000000000000000090224061915-27001  00000000000000049541240619000000006500323704424  000000000008000000000000000000000000000000000000000000000000000000000000000000000000000000000000000000000000000000000                          0000000000                                                                  000006
1022014714700011600000090349901950843200002431820000061472019 0000000000000004955P000000000000000000000000090224061915-08001  0000000000000004955P220619000000007675423704424  000000000008000000000000000000000000000000000000000000000000000000000000000000000000000000000000000000000000000000000                          0000000000                                                                  000007
1022014714700011600000090349901950843200002532220000061482019 00000000000000049568000000000000000000000000090224061927-01001  00000000000000049568280619000000009863423704424  000000000008000000000000000000000000000000000000000000000000000000000000000000000000000000000000000000000000000000000                          0000000000                                                                  000008
1022014714700011600000090349901950843200002578720000061492019 00000000000000049576000000000000000000000000090224061920-03001  00000000000000049576260619000000008823523704424  000000000008000000000000000000000000000000000000000000000000000000000000000000000000000000000000000000000000000000000                          0000000000                                                                  000009
1022014714700011600000090349901950843200003496120000061502019 00000000000000049584000000000000000000000000090224061928-03001  00000000000000049584220619000000008666923704424  000000000008000000000000000000000000000000000000000000000000000000000000000000000000000000000000000000000000000000000                          0000000000                                                                  000010
1022014714700011600000090349901950843200003536220000061512019 00000000000000049592000000000000000000000000090224061908-06001  00000000000000049592220619000000007197823704424  000000000008000000000000000000000000000000000000000000000000000000000000000000000000000000000000000000000000000000000                          0000000000                                                                  000011
1022014714700011600000090349901950843200000800620000042762019 00000000000000037292000000000000000000000000090624061925-10001  00000000000000037292220619000000006373675602430  000000000000000000000000000000000000000000000000000000000000000000000000000000000000006373600000000000000000000000000   260619             00000000000000                                                                  000012
1022014714700011600000090349901950843200000813420000042802019 00000000000000037330000000000000000000000000090624061902-12001  00000000000000037330220619000000005719623700396  000000000000000000000000000000000000000000000000000000000000000000000000000000000000005719600000000000000000000000000   260619             00000000000000                                                                  000013
1022014714700011600000090349901950843200000813420000042812019 00000000000000037349000000000000000000000000090624061905-08001  00000000000000037349220619000000005861823700396  000000000000000000000000000000000000000000000000000000000000000000000000000000000000005861800000000000000000000000000   260619             00000000000000                                                                  000014
1022014714700011600000090349901950843200000818320000042872019 00000000000000037403000000000000000000000000090624061905-04001  00000000000000037403220619000000026195010401642  000000000000000000000000000000000000000000000000000000000000000000000000000000000000026195000000000000000000000000000   260619             00000000000000                                                                  000015
1022014714700011600000090349901950843200000818320000042882019 00000000000000037411000000000000000000000000090624061907-08001  00000000000000037411220619000000031348810401642  000000000000000000000000000000000000000000000000000000000000000000000000000000000000031348800000000000000000000000000   260619             00000000000000                                                                  000016
1022014714700011600000090349901950843200000818320000042892019 0000000000000003742P000000000000000000000000090624061908-09001  0000000000000003742P220619000000030896710401642  000000000000000000000000000000000000000000000000000000000000000000000000000000000000030896700000000000000000000000000   260619             00000000000000                                                                  000017
1022014714700011600000090349901950843200000818320000042902019 00000000000000037438000000000000000000000000090624061908-18001  00000000000000037438220619000000030896710401642  000000000000000000000000000000000000000000000000000000000000000000000000000000000000030896700000000000000000000000000   260619             00000000000000                                                                  000018
1022014714700011600000090349901950843200000818320000042912019 00000000000000037446000000000000000000000000090624061909-19001  00000000000000037446220619000000029036710401642  000000000000000000000000000000000000000000000000000000000000000000000000000000000000029036700000000000000000000000000   260619             00000000000000                                                                  000019
1022014714700011600000090349901950843200000818320000042922019 00000000000000037454000000000000000000000000090624061909-24001  00000000000000037454220619000000031349310401642  000000000000000000000000000000000000000000000000000000000000000000000000000000000000031349300000000000000000000000000   260619             00000000000000                                                                  000020
1022014714700011600000090349901950843200000818920000043082019 00000000000000037616000000000000000000000000090624061922-15001  00000000000000037616220619000000030896710401642  000000000000000000000000000000000000000000000000000000000000000000000000000000000000030896700000000000000000000000000   260619             00000000000000                                                                  000021
1022014714700011600000090349901950843200000818920000043092019 00000000000000037624000000000000000000000000090624061922-16001  00000000000000037624220619000000030896710401642  000000000000000000000000000000000000000000000000000000000000000000000000000000000000030896700000000000000000000000000   260619             00000000000000                                                                  000022
1022014714700011600000090349901950843200000818920000043102019 00000000000000037632000000000000000000000000090624061922-17001  00000000000000037632220619000000031680910401642  000000000000000000000000000000000000000000000000000000000000000000000000000000000000031680900000000000000000000000000   260619             00000000000000                                                                  000023
1022014714700011600000090349901950843200000818920000043112019 00000000000000037640000000000000000000000000090624061924-02001  00000000000000037640220619000000026574710401642  000000000000000000000000000000000000000000000000000000000000000000000000000000000000026574700000000000000000000000000   260619             00000000000000                                                                  000024
1022014714700011600000090349901950843200000818920000043122019 00000000000000037659000000000000000000000000090624061924-03001  00000000000000037659220619000000029732310401642  000000000000000000000000000000000000000000000000000000000000000000000000000000000000029732300000000000000000000000000   260619             00000000000000                                                                  000025
1022014714700011600000090349901950843200000820120000043252019 00000000000000037780000000000000000000000000090624061905-05001  00000000000000037780220619000000027191410401642  000000000000000000000000000000000000000000000000000000000000000000000000000000000000027191400000000000000000000000000   260619             00000000000000                                                                  000026
1022014714700011600000090349901950843200000820120000043262019 00000000000000037799000000000000000000000000090624061906-04001  00000000000000037799220619000000028080810401642  000000000000000000000000000000000000000000000000000000000000000000000000000000000000028080800000000000000000000000000   260619             00000000000000                                                                  000027
1022014714700011600000090349901950843200000820120000043272019 00000000000000037802000000000000000000000000090624061906-08001  00000000000000037802220619000000057263810401642  000000000000000000000000000000000000000000000000000000000000000000000000000000000000057263800000000000000000000000000   260619             00000000000000                                                                  000028
1022014714700011600000090349901950843200000820120000043282019 00000000000000037810000000000000000000000000090624061906-09001  00000000000000037810220619000000025761310401642  000000000000000000000000000000000000000000000000000000000000000000000000000000000000025761300000000000000000000000000   260619             00000000000000                                                                  000029
1022014714700011600000090349901950843200000820120000043292019 00000000000000037829000000000000000000000000090624061909-18001  00000000000000037829220619000000029036710401642  000000000000000000000000000000000000000000000000000000000000000000000000000000000000029036700000000000000000000000000   260619             00000000000000                                                                  000030
1022014714700011600000090349901950843200000820120000043302019 00000000000000037837000000000000000000000000090624061909-20001  00000000000000037837220619000000029036710401642  000000000000000000000000000000000000000000000000000000000000000000000000000000000000029036700000000000000000000000000   260619             00000000000000                                                                  000031
1022014714700011600000090349901950843200000864220000043312019 00000000000000037845000000000000000000000000090624061915-20001  00000000000000037845220619000000007451900100166  000000000000000000000000000000000000000000000000000000000000000000000000000000000000007451900000000000000000000000000   260619             00000000000000                                                                  000032
1022014714700011600000090349901950843200001128920000043572019 00000000000000038108000000000000000000000000090624061916-40001  00000000000000038108220619000000044372900104276  000000000000000000000000000000000000000000000000000000000000000000000000000000000000044372900000000000000000000000000   260619             00000000000000                                                                  000033
1022014714700011600000090349901950843200001128920000043582019 00000000000000038116000000000000000000000000090624061916-41001  00000000000000038116220619000000048851600104276  000000000000000000000000000000000000000000000000000000000000000000000000000000000000048851600000000000000000000000000   260619             00000000000000                                                                  000034
1022014714700011600000090349901950843200001129320000043602019 00000000000000038132000000000000000000000000090624061903-08001  00000000000000038132220619000000012762700104276  000000000000000000000000000000000000000000000000000000000000000000000000000000000000012762700000000000000000000000000   260619             00000000000000                                                                  000035
1022014714700011600000090349901950843200001129320000043612019 00000000000000038140000000000000000000000000090624061903-09001  00000000000000038140220619000000012989500104276  000000000000000000000000000000000000000000000000000000000000000000000000000000000000012989500000000000000000000000000   260619             00000000000000                                                                  000036
1022014714700011600000090349901950843200001130020000043712019 00000000000000038248000000000000000000000000090624061912-11001  00000000000000038248220619000000006384500104276  000000000000000000000000000000000000000000000000000000000000000000000000000000000000006384500000000000000000000000000   260619             00000000000000                                                                  000037
1022014714700011600000090349901950843200001130220000043732019 00000000000000038264000000000000000000000000090624061916-30001  00000000000000038264220619000000006367300102296  000000000000000000000000000000000000000000000000000000000000000000000000000000000000006367300000000000000000000000000   260619             00000000000000                                                                  000038
1022014714700011600000090349901950843200001231320000043822019 00000000000000038353000000000000000000000000090624061908-27001  00000000000000038353220619000000006394710400116  000000000000000000000000000000000000000000000000000000000000000000000000000000000000006394700000000000000000000000000   260619             00000000000000                                                                  000039
1022014714700011600000090349901950843200001231320000043832019 00000000000000038361000000000000000000000000090624061908-28001  00000000000000038361220619000000006394710400116  000000000000000000000000000000000000000000000000000000000000000000000000000000000000006394700000000000000000000000000   260619             00000000000000                                                                  000040
1022014714700011600000090349901950843200001330220000043932019 00000000000000038469000000000000000000000000090624061928-08001  00000000000000038469220619000000018913400100166  000000000000000000000000000000000000000000000000000000000000000000000000000000000000018913400000000000000000000000000   260619             00000000000000                                                                  000041
1022014714700011600000090349901950843200001330320000043942019 00000000000000038477000000000000000000000000090624061917-17001  00000000000000038477220619000000009326503304366  000000000000000000000000000000000000000000000000000000000000000000000000000000000000009326500000000000000000000000000   260619             00000000000000                                                                  000042
1022014714700011600000090349901950843200001330820000044002019 00000000000000038531000000000000000000000000090624061902-04001  00000000000000038531220619000000005869834100219  000000000000000000000000000000000000000000000000000000000000000000000000000000000000005869800000000000000000000000000   260619             00000000000000                                                                  000043
1022014714700011600000090349901950843200001429420000044092019 00000000000000038620000000000000000000000000090624061927-08001  00000000000000038620220619000000006833400100166  000000000000000000000000000000000000000000000000000000000000000000000000000000000000006833400000000000000000000000000   260619             00000000000000                                                                  000044
1022014714700011600000090349901950843200001429520000044102019 00000000000000038639000000000000000000000000090624061922-03001  00000000000000038639220619000000006612300105890  000000000000000000000000000000000000000000000000000000000000000000000000000000000000006612300000000000000000000000000   260619             00000000000000                                                                  000045
1022014714700011600000090349901950843200001430220000044212019 00000000000000038744000000000000000000000000090624061907-19001  00000000000000038744220619000000007778910403234  000000000000000000000000000000000000000000000000000000000000000000000000000000000000007778900000000000000000000000000   260619             00000000000000                                                                  000046
1022014714700011600000090349901950843200001528620000044282019 00000000000000038817000000000000000000000000090624061908-10001  00000000000000038817220619000000006595575603027  000000000000000000000000000000000000000000000000000000000000000000000000000000000000006595500000000000000000000000000   260619             00000000000000                                                                  000047
1022014714700011600000090349901950843200001528820000044302019 00000000000000038833000000000000000000000000090624061923-04001  00000000000000038833220619000000019930023702934  000000000000000000000000000000000000000000000000000000000000000000000000000000000000019930000000000000000000000000000   260619             00000000000000                                                                  000048
1022014714700011600000090349901950843200001629620000044432019 00000000000000038965000000000000000000000000090624061927-05001  00000000000000038965220619000000006397034103180  000000000000000000000000000000000000000000000000000000000000000000000000000000000000006397000000000000000000000000000   260619             00000000000000                                                                  000049
1022014714700011600000090349901950843200001630620000044532019 00000000000000039066000000000000000000000000090624061915-01001  00000000000000039066220619000000006626523700396  000000000000000000000000000000000000000000000000000000000000000000000000000000000000006626500000000000000000000000000   260619             00000000000000                                                                  000050
1022014714700011600000090349901950843200001630820000044562019 00000000000000039090000000000000000000000000090624061914-14001  00000000000000039090220619000000022993100105890  000000000000000000000000000000000000000000000000000000000000000000000000000000000000022993100000000000000000000000000   260619             00000000000000                                                                  000051
1022014714700011600000090349901950843200001730420000044702019 00000000000000039236000000000000000000000000090624061906-11001  00000000000000039236220619000000006864623701754  000000000000000000000000000000000000000000000000000000000000000000000000000000000000006864600000000000000000000000000   260619             00000000000000                                                                  000052
1022014714700011600000090349901950843200001829720000044732019 00000000000000039260000000000000000000000000090624061909-01001  00000000000000039260220619000000005997200104276  000000000000000000000000000000000000000000000000000000000000000000000000000000000000005997200000000000000000000000000   260619             00000000000000                                                                  000053
1022014714700011600000090349901950843200001829720000044742019 00000000000000039279000000000000000000000000090624061909-02001  00000000000000039279220619000000005998700104276  000000000000000000000000000000000000000000000000000000000000000000000000000000000000005998700000000000000000000000000   260619             00000000000000                                                                  000054
1022014714700011600000090349901950843200001931020000045082019 00000000000000039619000000000000000000000000090624061921-16001  00000000000000039619220619000000006803510401642  000000000000000000000000000000000000000000000000000000000000000000000000000000000000006803500000000000000000000000000   260619             00000000000000                                                                  000055
1022014714700011600000090349901950843200001931220000045102019 00000000000000039635000000000000000000000000090624061907-06001  00000000000000039635220619000000007471810403285  000000000000000000000000000000000000000000000000000000000000000000000000000000000000007471800000000000000000000000000   260619             00000000000000                                                                  000056
1022014714700011600000090349901950843200001931220000045112019 00000000000000039643000000000000000000000000090624061908-14001  00000000000000039643220619000000007950510403285  000000000000000000000000000000000000000000000000000000000000000000000000000000000000007950500000000000000000000000000   260619             00000000000000                                                                  000057
1022014714700011600000090349901950843200002030020000045212019 00000000000000039740000000000000000000000000090624061918-03001  00000000000000039740220619000000005894023700396  000000000000000000000000000000000000000000000000000000000000000000000000000000000000005894000000000000000000000000000   260619             00000000000000                                                                  000058
1022014714700011600000090349901950843200002130320000045242019 00000000000000039775000000000000000000000000090624061907-12001  00000000000000039775220619000000006599110400116  000000000000000000000000000000000000000000000000000000000000000000000000000000000000006599100000000000000000000000000   260619             00000000000000                                                                  000059
1022014714700011600000090349901950843200002231420000045502019 0000000000000004003P000000000000000000000000090624061916-01001  0000000000000004003P220619000000007136600105890  000000000000000000000000000000000000000000000000000000000000000000000000000000000000007136600000000000000000000000000   260619             00000000000000                                                                  000060
1022014714700011600000090349901950843200002231520000045512019 00000000000000040048000000000000000000000000090624061923-01001  00000000000000040048220619000000008124010400116  000000000000000000000000000000000000000000000000000000000000000000000000000000000000008124000000000000000000000000000   260619             00000000000000                                                                  000061
1022014714700011600000090349901950843200002232520000045632019 00000000000000040161000000000000000000000000090624061914-12001  00000000000000040161220619000000019199534103041  000000000000000000000000000000000000000000000000000000000000000000000000000000000000019199500000000000000000000000000   260619             00000000000000                                                                  000062
1022014714700011600000090349901950843200002232620000045642019 0000000000000004017P000000000000000000000000090624061923-12001  0000000000000004017P220619000000005881310401642  000000000000000000000000000000000000000000000000000000000000000000000000000000000000005881300000000000000000000000000   260619             00000000000000                                                                  000063
1022014714700011600000090349901950843200002430820000045802019 00000000000000040331000000000000000000000000090624061927-06001  00000000000000040331220619000000006397034103180  000000000000000000000000000000000000000000000000000000000000000000000000000000000000006397000000000000000000000000000   260619             00000000000000                                                                  000064
1022014714700011600000090349901950843200002432220000045952019 0000000000000004048P000000000000000000000000090624061903-11001  0000000000000004048P220619000000010701910401642  000000000000000000000000000000000000000000000000000000000000000000000000000000000000010701900000000000000000000000000   260619             00000000000000                                                                  000065
1022014714700011600000090349901950843200002432220000045962019 00000000000000040498000000000000000000000000090624061916-09001  00000000000000040498220619000000012030510401642  000000000000000000000000000000000000000000000000000000000000000000000000000000000000012030500000000000000000000000000   260619             00000000000000                                                                  000066
1022014714700011600000090349901950843200002531720000046012019 00000000000000040544000000000000000000000000090624061906-01001  00000000000000040544220619000000005993510401642  000000000000000000000000000000000000000000000000000000000000000000000000000000000000005993500000000000000000000000000   260619             00000000000000                                                                  000067
1022014714700011600000090349901950843200002532220000046072019 00000000000000040609000000000000000000000000090624061927-01001  00000000000000040609220619000000007711110401642  000000000000000000000000000000000000000000000000000000000000000000000000000000000000007711100000000000000000000000000   260619             00000000000000                                                                  000068
1022014714700011600000090349901950843200002578720000046082019 00000000000000040617000000000000000000000000090624061920-03001  00000000000000040617220619000000008823523700396  000000000000000000000000000000000000000000000000000000000000000000000000000000000000008823500000000000000000000000000   260619             00000000000000                                                                  000069
1022014714700011600000090349901950843200002631820000046192019 00000000000000040722000000000000000000000000090624061915-02001  00000000000000040722220619000000006367323700396  000000000000000000000000000000000000000000000000000000000000000000000000000000000000006367300000000000000000000000000   260619             00000000000000                                                                  000070
1022014714700011600000090349901950843200002732420000046222019 00000000000000040757000000000000000000000000090624061924-07001  00000000000000040757220619000000005719410403234  000000000000000000000000000000000000000000000000000000000000000000000000000000000000005719400000000000000000000000000   260619             00000000000000                                                                  000071
1022014714700011600000090349901950843200002733120000046302019 00000000000000040838000000000000000000000000090624061907-01001  00000000000000040838220619000000016974810403234  000000000000000000000000000000000000000000000000000000000000000000000000000000000000016974800000000000000000000000000   260619             00000000000000                                                                  000072
1022014714700011600000090349901950843200002733120000046312019 00000000000000040846000000000000000000000000090624061907-21001  00000000000000040846220619000000007724710403234  000000000000000000000000000000000000000000000000000000000000000000000000000000000000007724700000000000000000000000000   260619             00000000000000                                                                  000073
1022014714700011600000090349901950843200002733120000046322019 00000000000000040854000000000000000000000000090624061912-08001  00000000000000040854220619000000006384510403234  000000000000000000000000000000000000000000000000000000000000000000000000000000000000006384500000000000000000000000000   260619             00000000000000                                                                  000074
1022014714700011600000090349901950843200002733220000046332019 00000000000000040862000000000000000000000000090624061925-06001  00000000000000040862220619000000008605510400116  000000000000000000000000000000000000000000000000000000000000000000000000000000000000008605500000000000000000000000000   260619             00000000000000                                                                  000075
1022014714700011600000090349901950843200002831920000046492019 00000000000000041028000000000000000000000000090624061909-06001  00000000000000041028220619000000006384510401821  000000000000000000000000000000000000000000000000000000000000000000000000000000000000006384500000000000000000000000000   260619             00000000000000                                                                  000076
1022014714700011600000090349901950843200002832020000046502019 00000000000000041036000000000000000000000000090624061925-07001  00000000000000041036220619000000009740710401821  000000000000000000000000000000000000000000000000000000000000000000000000000000000000009740700000000000000000000000000   260619             00000000000000                                                                  000077
1022014714700011600000090349901950843200002832420000046532019 00000000000000041060000000000000000000000000090624061905-01001  00000000000000041060220619000000014464934100219  000000000000000000000000000000000000000000000000000000000000000000000000000000000000014464900000000000000000000000000   260619             00000000000000                                                                  000078
1022014714700011600000090349901950843200003031520000046872019 00000000000000041400000000000000000000000000090624061924-10001  00000000000000041400220619000000005707423700396  000000000000000000000000000000000000000000000000000000000000000000000000000000000000005707400000000000000000000000000   260619             00000000000000                                                                  000079
1022014714700011600000090349901950843200003111320000046962019 00000000000000041494000000000000000000000000090624061929-06001  00000000000000041494220619000000007120110403234  000000000000000000000000000000000000000000000000000000000000000000000000000000000000007120100000000000000000000000000   260619             00000000000000                                                                  000080
1022014714700011600000090349901950843200003111720000047002019 00000000000000041532000000000000000000000000090624061916-32001  00000000000000041532220619000000006367010401642  000000000000000000000000000000000000000000000000000000000000000000000000000000000000006367000000000000000000000000000   260619             00000000000000                                                                  000081
1022014714700011600000090349901950843200003111720000047012019 00000000000000041540000000000000000000000000090624061916-33001  00000000000000041540220619000000006367310401642  000000000000000000000000000000000000000000000000000000000000000000000000000000000000006367300000000000000000000000000   260619             00000000000000                                                                  000082
1022014714700011600000090349901950843200003477420000047062019 00000000000000041591000000000000000000000000090624061922-02001  00000000000000041591220619000000053922300101154  000000000000000000000000000000000000000000000000000000000000000000000000000000000000053922300000000000000000000000000   260619             00000000000000                                                                  000083
1022014714700011600000090349901950843200003532520000047152019 00000000000000041680000000000000000000000000090624061915-21001  00000000000000041680220619000000007451900102296  000000000000000000000000000000000000000000000000000000000000000000000000000000000000007451900000000000000000000000000   260619             00000000000000                                                                  000084
1022014714700011600000090349901950843200003551420000060492019 00000000000000049304000000000000000000000000090624061908-15001  00000000000000049304250619000000007950510401642  000000000000000000000000000000000000000000000000000000000000000000000000000000000000007950500000000000000000000000000   260619             00000000000000                                                                  000085
1022014714700011600000090349901950843200002430620000060912019 00000000000000049428000000000000000000000000090624061922-08001  00000000000000049428260619000000030221875601622  000000000000000000000000000000000000000000000000000000000000000000000000000000000000030221800000000000000000000000000   260619             00000000000000                                                                  000086
1022014714700011600000090349901950843200002430620000060922019 00000000000000049436000000000000000000000000090624061922-09001  00000000000000049436260619000000024153175601622  000000000000000000000000000000000000000000000000000000000000000000000000000000000000024153100000000000000000000000000   260619             00000000000000                                                                  000087
1022014714700011600000090349901950843200000800820000017912019 00000000000000022384000000000000000000000000091024061922-02001  00000000000000022384220419000000053922323700000  000000000000000000000000000000000000000000000000000000000000000000000000000000000000000000000000000000000000000000000                          1600000000                                                                  000088
1022014714700011600000090349901950843200000813420000017942019 00000000000000022414000000000000000000000000091024061902-12001  00000000000000022414220419000000005719623700000  000000000000000000000000000000000000000000000000000000000000000000000000000000000000000000000000000000000000000000000                          1600000000                                                                  000089
1022014714700011600000090349901950843200000813420000017952019 00000000000000022422000000000000000000000000091024061905-08001  00000000000000022422220419000000005861823700000  000000000000000000000000000000000000000000000000000000000000000000000000000000000000000000000000000000000000000000000                          1600000000                                                                  000090
1022014714700011600000090349901950843200000818720000018072019 00000000000000022546000000000000000000000000091024061921-02001  00000000000000022546220419000000009902723700000  000000000000000000000000000000000000000000000000000000000000000000000000000000000000000000000000000000000000000000000                          1600000000                                                                  000091
1022014714700011600000090349901950843200000819220000018282019 00000000000000022759000000000000000000000000091024061905-10001  00000000000000022759220419000000005861623700000  000000000000000000000000000000000000000000000000000000000000000000000000000000000000000000000000000000000000000000000                          1600000000                                                                  000092
1022014714700011600000090349901950843200000819220000018292019 00000000000000022767000000000000000000000000091024061905-11001  00000000000000022767220419000000005861623700000  000000000000000000000000000000000000000000000000000000000000000000000000000000000000000000000000000000000000000000000                          1600000000                                                                  000093
1022014714700011600000090349901950843200000819220000018302019 00000000000000022775000000000000000000000000091024061907-15001  00000000000000022775220419000000005790423700000  000000000000000000000000000000000000000000000000000000000000000000000000000000000000000000000000000000000000000000000                          1600000000                                                                  000094
1022014714700011600000090349901950843200000819220000018312019 00000000000000022783000000000000000000000000091024061907-16001  00000000000000022783220419000000005790423700000  000000000000000000000000000000000000000000000000000000000000000000000000000000000000000000000000000000000000000000000                          1600000000                                                                  000095
1022014714700011600000090349901950843200000819220000018322019 00000000000000022791000000000000000000000000091024061919-01001  00000000000000022791220419000000010322523700000  000000000000000000000000000000000000000000000000000000000000000000000000000000000000000000000000000000000000000000000                          1600000000                                                                  000096
1022014714700011600000090349901950843200000819220000018342019 00000000000000022813000000000000000000000000091024061920-06001  00000000000000022813220419000000008692223700000  000000000000000000000000000000000000000000000000000000000000000000000000000000000000000000000000000000000000000000000                          1600000000                                                                  000097
1022014714700011600000090349901950843200000820020000018352019 00000000000000022821000000000000000000000000091024061906-10001  00000000000000022821220419000000018605923700000  000000000000000000000000000000000000000000000000000000000000000000000000000000000000000000000000000000000000000000000                          1600000000                                                                  000098
1022014714700011600000090349901950843200000820020000018362019 0000000000000002283P000000000000000000000000091024061907-03001  0000000000000002283P220419000000017226123700000  000000000000000000000000000000000000000000000000000000000000000000000000000000000000000000000000000000000000000000000                          1600000000                                                                  000099
1022014714700011600000090349901950843200000820020000018372019 00000000000000022848000000000000000000000000091024061907-11001  00000000000000022848220419000000016746123700000  000000000000000000000000000000000000000000000000000000000000000000000000000000000000000000000000000000000000000000000                          1600000000                                                                  000100
1022014714700011600000090349901950843200000820020000018382019 00000000000000022856000000000000000000000000091024061908-19001  00000000000000022856220419000000013229023700000  000000000000000000000000000000000000000000000000000000000000000000000000000000000000000000000000000000000000000000000                          1600000000                                                                  000101
1022014714700011600000090349901950843200000820020000018392019 00000000000000022864000000000000000000000000091024061928-09001  00000000000000022864220419000000008464723700000  000000000000000000000000000000000000000000000000000000000000000000000000000000000000000000000000000000000000000000000                          1600000000                                                                  000102
1022014714700011600000090349901950843200000934220000018492019 00000000000000022961000000000000000000000000091024061909-10001  00000000000000022961220419000000006598923700000  000000000000000000000000000000000000000000000000000000000000000000000000000000000000000000000000000000000000000000000                          1600000000                                                                  000103
1022014714700011600000090349901950843200001033720000018632019 00000000000000023100000000000000000000000000091024061923-05001  00000000000000023100220419000000005701523700000  000000000000000000000000000000000000000000000000000000000000000000000000000000000000000000000000000000000000000000000                          1600000000                                                                  000104
1022014714700011600000090349901950843200001034620000018732019 00000000000000023208000000000000000000000000091024061916-27001  00000000000000023208220419000000006367323700000  000000000000000000000000000000000000000000000000000000000000000000000000000000000000000000000000000000000000000000000                          1600000000                                                                  000105
1022014714700011600000090349901950843200001129520000018842019 00000000000000023313000000000000000000000000091024061923-13001  00000000000000023313220419000000005719623700000  000000000000000000000000000000000000000000000000000000000000000000000000000000000000000000000000000000000000000000000                          1600000000                                                                  000106
1022014714700011600000090349901950843200001230820000018972019 00000000000000023445000000000000000000000000091024061927-16001  00000000000000023445220419000000006865823700000  000000000000000000000000000000000000000000000000000000000000000000000000000000000000000000000000000000000000000000000                          1600000000                                                                  000107
1022014714700011600000090349901950843200001231120000019002019 0000000000000002347P000000000000000000000000091024061908-21001  0000000000000002347P220419000000006299823700000  000000000000000000000000000000000000000000000000000000000000000000000000000000000000000000000000000000000000000000000                          1600000000                                                                  000108
1022014714700011600000090349901950843200001330020000019092019 00000000000000023569000000000000000000000000091024061917-16001  00000000000000023569220419000000005894023700000  000000000000000000000000000000000000000000000000000000000000000000000000000000000000000000000000000000000000000000000                          1600000000                                                                  000109
1022014714700011600000090349901950843200001330020000019102019 00000000000000023577000000000000000000000000091024061923-06001  00000000000000023577220419000000005719423700000  000000000000000000000000000000000000000000000000000000000000000000000000000000000000000000000000000000000000000000000                          1600000000                                                                  000110
1022014714700011600000090349901950843200001430120000019382019 00000000000000023852000000000000000000000000091024061903-01001  00000000000000023852220419000000005661223700000  000000000000000000000000000000000000000000000000000000000000000000000000000000000000000000000000000000000000000000000                          1600000000                                                                  000111
1022014714700011600000090349901950843200001430120000019392019 00000000000000023860000000000000000000000000091024061903-02001  00000000000000023860220419000000005761123700000  000000000000000000000000000000000000000000000000000000000000000000000000000000000000000000000000000000000000000000000                          1600000000                                                                  000112
1022014714700011600000090349901950843200001430520000019432019 00000000000000023909000000000000000000000000091024061903-06001  00000000000000023909220419000000005742923700000  000000000000000000000000000000000000000000000000000000000000000000000000000000000000000000000000000000000000000000000                          1600000000                                                                  000113
1022014714700011600000090349901950843200001528520000019462019 00000000000000023933000000000000000000000000091024061902-02001  00000000000000023933220419000000005927523700000  000000000000000000000000000000000000000000000000000000000000000000000000000000000000000000000000000000000000000000000                          1600000000                                                                  000114
1022014714700011600000090349901950843200001528820000019492019 00000000000000023968000000000000000000000000091024061923-04001  00000000000000023968220419000000019930023700000  000000000000000000000000000000000000000000000000000000000000000000000000000000000000000000000000000000000000000000000                          1600000000                                                                  000115
1022014714700011600000090349901950843200001630220000019682019 00000000000000024158000000000000000000000000091024061916-12001  00000000000000024158220419000000006182023700000  000000000000000000000000000000000000000000000000000000000000000000000000000000000000000000000000000000000000000000000                          1600000000                                                                  000116
1022014714700011600000090349901950843200001630220000019692019 00000000000000024166000000000000000000000000091024061917-10001  00000000000000024166220419000000005894023700000  000000000000000000000000000000000000000000000000000000000000000000000000000000000000000000000000000000000000000000000                          1600000000                                                                  000117
1022014714700011600000090349901950843200001729620000019812019 0000000000000002428P000000000000000000000000091024061928-01001  0000000000000002428P220419000000006577423700000  000000000000000000000000000000000000000000000000000000000000000000000000000000000000000000000000000000000000000000000                          1600000000                                                                  000118
1022014714700011600000090349901950843200001829720000019932019 00000000000000024409000000000000000000000000091024061909-01001  00000000000000024409220419000000005997223700000  000000000000000000000000000000000000000000000000000000000000000000000000000000000000000000000000000000000000000000000                          1600000000                                                                  000119
1022014714700011600000090349901950843200001829720000019942019 00000000000000024417000000000000000000000000091024061909-02001  00000000000000024417220419000000005998723700000  000000000000000000000000000000000000000000000000000000000000000000000000000000000000000000000000000000000000000000000                          1600000000                                                                  000120
1022014714700011600000090349901950843200001930720000020262019 00000000000000024735000000000000000000000000091024061926-01001  00000000000000024735220419000000005909723700000  000000000000000000000000000000000000000000000000000000000000000000000000000000000000000000000000000000000000000000000                          1600000000                                                                  000121
1022014714700011600000090349901950843200002029420000020332019 00000000000000024808000000000000000000000000091024061923-07001  00000000000000024808220419000000005719623700000  000000000000000000000000000000000000000000000000000000000000000000000000000000000000000000000000000000000000000000000                          1600000000                                                                  000122
1022014714700011600000090349901950843200002130620000020482019 00000000000000024956000000000000000000000000091024061927-03001  00000000000000024956220419000000006397023700000  000000000000000000000000000000000000000000000000000000000000000000000000000000000000000000000000000000000000000000000                          1600000000                                                                  000123
1022014714700011600000090349901950843200002231020000020662019 00000000000000025138000000000000000000000000091024061916-25001  00000000000000025138220419000000011680223700000  000000000000000000000000000000000000000000000000000000000000000000000000000000000000000000000000000000000000000000000                          1600000000                                                                  000124
1022014714700011600000090349901950843200002231620000020732019 00000000000000025200000000000000000000000000091024061902-03001  00000000000000025200220419000000005917623700000  000000000000000000000000000000000000000000000000000000000000000000000000000000000000000000000000000000000000000000000                          1600000000                                                                  000125
1022014714700011600000090349901950843200002231720000020742019 00000000000000025219000000000000000000000000091024061914-08001  00000000000000025219220419000000006397023700000  000000000000000000000000000000000000000000000000000000000000000000000000000000000000000000000000000000000000000000000                          1600000000                                                                  000126
1022014714700011600000090349901950843200002231720000020752019 00000000000000025227000000000000000000000000091024061914-09001  00000000000000025227220419000000006397023700000  000000000000000000000000000000000000000000000000000000000000000000000000000000000000000000000000000000000000000000000                          1600000000                                                                  000127
1022014714700011600000090349901950843200002231820000020762019 00000000000000025235000000000000000000000000091024061901-06001  00000000000000025235220419000000006589923700000  000000000000000000000000000000000000000000000000000000000000000000000000000000000000000000000000000000000000000000000                          1600000000                                                                  000128
1022014714700011600000090349901950843200002231920000020782019 00000000000000025251000000000000000000000000091024061912-02001  00000000000000025251220419000000006384523700000  000000000000000000000000000000000000000000000000000000000000000000000000000000000000000000000000000000000000000000000                          1600000000                                                                  000129
1022014714700011600000090349901950843200002231920000020792019 0000000000000002526P000000000000000000000000091024061912-23001  0000000000000002526P220419000000006170923700000  000000000000000000000000000000000000000000000000000000000000000000000000000000000000000000000000000000000000000000000                          1600000000                                                                  000130
1022014714700011600000090349901950843200002232020000020802019 00000000000000025278000000000000000000000000091024061918-30001  00000000000000025278220419000000007112823700000  000000000000000000000000000000000000000000000000000000000000000000000000000000000000000000000000000000000000000000000                          1600000000                                                                  000131
1022014714700011600000090349901950843200002232420000020842019 00000000000000025316000000000000000000000000091024061929-02001  00000000000000025316220419000000007211423700000  000000000000000000000000000000000000000000000000000000000000000000000000000000000000000000000000000000000000000000000                          1600000000                                                                  000132
1022014714700011600000090349901950843200002331220000020882019 00000000000000025359000000000000000000000000091024061914-06001  00000000000000025359220419000000006397023700000  000000000000000000000000000000000000000000000000000000000000000000000000000000000000000000000000000000000000000000000                          1600000000                                                                  000133
1022014714700011600000090349901950843200002331620000020932019 00000000000000025405000000000000000000000000091024061918-04001  00000000000000025405220419000000006042223700000  000000000000000000000000000000000000000000000000000000000000000000000000000000000000000000000000000000000000000000000                          1600000000                                                                  000134
1022014714700011600000090349901950843200002531320000021222019 00000000000000025693000000000000000000000000091024061908-07001  00000000000000025693220419000000007197823700000  000000000000000000000000000000000000000000000000000000000000000000000000000000000000000000000000000000000000000000000                          1600000000                                                                  000135
1022014714700011600000090349901950843200002531820000021272019 0000000000000002574P000000000000000000000000091024061926-08001  0000000000000002574P220419000000007308423700000  000000000000000000000000000000000000000000000000000000000000000000000000000000000000000000000000000000000000000000000                          1600000000                                                                  000136
1022014714700011600000090349901950843200002531820000021282019 00000000000000025758000000000000000000000000091024061926-09001  00000000000000025758220419000000007308423700000  000000000000000000000000000000000000000000000000000000000000000000000000000000000000000000000000000000000000000000000                          1600000000                                                                  000137
1022014714700011600000090349901950843200002630920000021342019 00000000000000025812000000000000000000000000091024061928-04001  00000000000000025812220419000000007697323700000  000000000000000000000000000000000000000000000000000000000000000000000000000000000000000000000000000000000000000000000                          1600000000                                                                  000138
1022014714700011600000090349901950843200002630920000021352019 00000000000000025820000000000000000000000000091024061928-14001  00000000000000025820220419000000006573623700000  000000000000000000000000000000000000000000000000000000000000000000000000000000000000000000000000000000000000000000000                          1600000000                                                                  000139
1022014714700011600000090349901950843200002733220000021592019 00000000000000026061000000000000000000000000091024061925-06001  00000000000000026061220419000000008605523700000  000000000000000000000000000000000000000000000000000000000000000000000000000000000000000000000000000000000000000000000                          1600000000                                                                  000140
1022014714700011600000090349901950843200002733420000021622019 00000000000000026096000000000000000000000000091024061903-14001  00000000000000026096220419000000005707623700000  000000000000000000000000000000000000000000000000000000000000000000000000000000000000000000000000000000000000000000000                          1600000000                                                                  000141
1022014714700011600000090349901950843200002831420000021692019 00000000000000026169000000000000000000000000091024061927-04001  00000000000000026169220419000000006397023700000  000000000000000000000000000000000000000000000000000000000000000000000000000000000000000000000000000000000000000000000                          1600000000                                                                  000142
1022014714700011600000090349901950843200002831620000021742019 00000000000000026215000000000000000000000000091024061917-05001  00000000000000026215220419000000006070823700000  000000000000000000000000000000000000000000000000000000000000000000000000000000000000000000000000000000000000000000000                          1600000000                                                                  000143
1022014714700011600000090349901950843200002831920000021802019 00000000000000026274000000000000000000000000091024061909-06001  00000000000000026274220419000000006384523700000  000000000000000000000000000000000000000000000000000000000000000000000000000000000000000000000000000000000000000000000                          1600000000                                                                  000144
1022014714700011600000090349901950843200002832420000021852019 00000000000000026320000000000000000000000000091024061927-07001  00000000000000026320220419000000010605923700000  000000000000000000000000000000000000000000000000000000000000000000000000000000000000000000000000000000000000000000000                          1600000000                                                                  000145
1022014714700011600000090349901950843200002832420000021862019 00000000000000026339000000000000000000000000091024061927-17001  00000000000000026339220419000000011658723700000  000000000000000000000000000000000000000000000000000000000000000000000000000000000000000000000000000000000000000000000                          1600000000                                                                  000146
1022014714700011600000090349901950843200002932120000021892019 00000000000000026363000000000000000000000000091024061903-07001  00000000000000026363220419000000005914723700000  000000000000000000000000000000000000000000000000000000000000000000000000000000000000000000000000000000000000000000000                          1600000000                                                                  000147
1022014714700011600000090349901950843200002932420000021942019 0000000000000002641P000000000000000000000000091024061925-09001  0000000000000002641P220419000000009691023700000  000000000000000000000000000000000000000000000000000000000000000000000000000000000000000000000000000000000000000000000                          1600000000                                                                  000148
1022014714700011600000090349901950843200003031120000022152019 00000000000000026622000000000000000000000000091024061922-24001  00000000000000026622220419000000009592323700000  000000000000000000000000000000000000000000000000000000000000000000000000000000000000000000000000000000000000000000000                          1600000000                                                                  000149
1022014714700011600000090349901950843200003031120000022162019 00000000000000026630000000000000000000000000091024061922-25001  00000000000000026630220419000000009592323700000  000000000000000000000000000000000000000000000000000000000000000000000000000000000000000000000000000000000000000000000                          1600000000                                                                  000150
1022014714700011600000090349901950843200003031120000022172019 00000000000000026649000000000000000000000000091024061922-26001  00000000000000026649220419000000009592323700000  000000000000000000000000000000000000000000000000000000000000000000000000000000000000000000000000000000000000000000000                          1600000000                                                                  000151
1022014714700011600000090349901950843200003111220000022272019 00000000000000026746000000000000000000000000091024061927-14001  00000000000000026746220419000000007408223700000  000000000000000000000000000000000000000000000000000000000000000000000000000000000000000000000000000000000000000000000                          1600000000                                                                  000152
1022014714700011600000090349901950843200003111720000022332019 00000000000000026800000000000000000000000000091024061916-32001  00000000000000026800220419000000006367023700000  000000000000000000000000000000000000000000000000000000000000000000000000000000000000000000000000000000000000000000000                          1600000000                                                                  000153
1022014714700011600000090349901950843200003111720000022342019 00000000000000026819000000000000000000000000091024061916-33001  00000000000000026819220419000000006367323700000  000000000000000000000000000000000000000000000000000000000000000000000000000000000000000000000000000000000000000000000                          1600000000                                                                  000154
1022014714700011600000090349901950843200000817620000051662019100000000000000042989000000000000000000000000091024061909-15001  00000000000000042989030619000000002694823700000  000000000000000000000000000000000000000000000000000000000000000000000000000000000000000000000000000000000000000000000                          1600000000                                                                  000155
102201471470001160000009034990195084316687997                 000000000001668799760000000000000000000000000910240619   001/18000000000000166879976220419000000006367423700000  000000000000000000000000000000000000000000000000000000000000000000000000000000000000000000000000000000000000000000000                          1600000000                                                                  000156
102201471470001160000009034990195084316703078                 000000000001670307880000000000000000000000000910240619   001/18000000000000167030788220419000000006626523700000  000000000000000000000000000000000000000000000000000000000000000000000000000000000000000000000000000000000000000000000                          1600000000                                                                  000157
1022014714700011600000090349901950843200001630620000062272019100000000000000049630000000000000000000000000090225061915-01001  00000000000000049630020719000000003976523704424  000000000008000000000000000000000000000000000000000000000000000000000000000000000000000000000000000000000000000000000                          0000000000                                                                  000158
1022014714700011600000090349901950843200002230820000062282019 00000000000000049649000000000000000000000000090225061918-18001  00000000000000049649270619000000005894023704424  000000000008000000000000000000000000000000000000000000000000000000000000000000000000000000000000000000000000000000000                          7600000000                                                                  000159
1022014714700011600000090349901950843200002230820000062292019 00000000000000049657000000000000000000000000090225061918-19001  00000000000000049657270619000000005894023704424  000000000008000000000000000000000000000000000000000000000000000000000000000000000000000000000000000000000000000000000                          7600000000                                                                  000160
1022014714700011600000090349901950843200002230920000062302019 00000000000000049665000000000000000000000000090225061905-06001  00000000000000049665270619000000007477223704424  000000000008000000000000000000000000000000000000000000000000000000000000000000000000000000000000000000000000000000000                          0000000000                                                                  000161
1022014714700011600000090349901950843200002631820000062312019100000000000000049673000000000000000000000000090225061915-02001  00000000000000049673020719000000002292323704424  000000000008000000000000000000000000000000000000000000000000000000000000000000000000000000000000000000000000000000000                          0000000000                                                                  000162
1022014714700011600000090349901950843200002732720000056292019 00000000000000047204000000000000000000000000090625061922-22001  00000000000000047204060719000000007988110401642  000000000000000000000000000000000000000000000000000000000000000000000000000000000000007988100000000000000000000000000   270619             00000000000000                                                                  000163
1022014714700011600000090349901950843200002732920000056312019 00000000000000047220000000000000000000000000090625061912-19001  00000000000000047220220719000000005991200100166  000000000000000000000000000000000000000000000000000000000000000000000000000000000000005991200000000000000000000000000   270619             00000000000000                                                                  000164
1022014714700011600000090349901950843200002732920000056322019 00000000000000047239000000000000000000000000090625061912-20001  00000000000000047239220719000000005991200100166  000000000000000000000000000000000000000000000000000000000000000000000000000000000000005991200000000000000000000000000   270619             00000000000000                                                                  000165
1022014714700011600000090349901950843200002230820000061442019 00000000000000049525000000000000000000000000090625061918-17001  00000000000000049525250619000000005894000100166  000000000000000000000000000000000000000000000000000000000000000000000000000000000000005894000000000000000000000000000   270619             00000000000000                                                                  000166
1022014714700011600000090349901950843200002431220000052192019 00000000000000043373000000000000000000000000091025061928-05001  00000000000000043373040619000000009593323700000  000000000000000000000000000000000000000000000000000000000000000000000000000000000000000000000000000000000000000000000                          1600000000                                                                  000167
1022014714700011600000090349901950843200000819220000062392019 00000000000000049711000000000000000000000000090226061905-10001  00000000000000049711280619000000005990523704424  000000000008000000000000000000000000000000000000000000000000000000000000000000000000000000000000000000000000000000000                          7600000000                                                                  000168
1022014714700011600000090349901950843200000819220000062402019 0000000000000004972P000000000000000000000000090226061905-11001  0000000000000004972P280619000000005990523704424  000000000008000000000000000000000000000000000000000000000000000000000000000000000000000000000000000000000000000000000                          7600000000                                                                  000169
1022014714700011600000090349901950843200000819220000062412019 00000000000000049738000000000000000000000000090226061907-15001  00000000000000049738280619000000005917823704424  000000000008000000000000000000000000000000000000000000000000000000000000000000000000000000000000000000000000000000000                          7600000000                                                                  000170
1022014714700011600000090349901950843200000819220000062422019 00000000000000049746000000000000000000000000090226061907-16001  00000000000000049746280619000000005917823704424  000000000008000000000000000000000000000000000000000000000000000000000000000000000000000000000000000000000000000000000                          7600000000                                                                  000171
1022014714700011600000090349901950843200000819220000062432019 00000000000000049754000000000000000000000000090226061920-06001  00000000000000049754280619000000008883423704424  000000000008000000000000000000000000000000000000000000000000000000000000000000000000000000000000000000000000000000000                          7600000000                                                                  000172
1022014714700011600000090349901950843200001830020000062442019 00000000000000049762000000000000000000000000090226061920-07001  00000000000000049762100719000000010471823704424  000000000008000000000000000000000000000000000000000000000000000000000000000000000000000000000000000000000000000000000                          0000000000                                                                  000173
1022014714700011600000090349901950843200001930520000062452019 00000000000000049770000000000000000000000000090226061916-17001  00000000000000049770280619000000002458323704424  000000000008000000000000000000000000000000000000000000000000000000000000000000000000000000000000000000000000000000000                          0000000000                                                                  000174
1022014714700011600000090349901950843200002231420000062462019 00000000000000049789000000000000000000000000090226061915-27001  00000000000000049789280619000000006643323704424  000000000008000000000000000000000000000000000000000000000000000000000000000000000000000000000000000000000000000000000                          0000000000                                                                  000175
1022014714700011600000090349901950843200002231720000062472019 00000000000000049797000000000000000000000000090226061914-08001  00000000000000049797020719000000018650623704424  000000000008000000000000000000000000000000000000000000000000000000000000000000000000000000000000000000000000000000000                          0000000000                                                                  000176
1022014714700011600000090349901950843200002531620000062482019 00000000000000049800000000000000000000000000090226061920-04001  00000000000000049800010719000000007311623704424  000000000008000000000000000000000000000000000000000000000000000000000000000000000000000000000000000000000000000000000                          0000000000                                                                  000177
1022014714700011600000090349901950843200002832420000062492019 00000000000000049819000000000000000000000000090226061905-01001  00000000000000049819030719000000017856623704424  000000000008000000000000000000000000000000000000000000000000000000000000000000000000000000000000000000000000000000000                          0000000000                                                                  000178
1022014714700011600000090349901950843200002832420000062502019 00000000000000049827000000000000000000000000090226061927-07001  00000000000000049827030719000000024154423704424  000000000008000000000000000000000000000000000000000000000000000000000000000000000000000000000000000000000000000000000                          0000000000                                                                  000179
1022014714700011600000090349901950843200002832420000062512019 00000000000000049835000000000000000000000000090226061927-17001  00000000000000049835030719000000026476023704424  000000000008000000000000000000000000000000000000000000000000000000000000000000000000000000000000000000000000000000000                          0000000000                                                                  000180
1022014714700011600000090349901950843200003031120000062522019 00000000000000049843000000000000000000000000090226061922-26001  00000000000000049843010719000000023309323704602  000000000008000000000000000000000000000000000000000000000000000000000000000000000000000000000000000000000000000000000                          0000000000                                                                  000181
1022014714700011600000090349901950843200001231520000043872019 0000000000000003840P000000000000000000000000090626061925-05001  0000000000000003840P220619000000006989923700396  000000000000000000000000000000000000000000000000000000000000000000000000000000000000007138800000000014890000000000000   280619             00000000000000                                                                  000182
1022014714700011600000090349901950843200001631020000044582019 00000000000000039112000000000000000000000000090626061924-12001  00000000000000039112170619000000006474310401642  000000000000000000000000000000000000000000000000000000000000000000000000000000000000006623500000000014920000000000000   280619             00000000000000                                                                  000183
1022014714700011600000090349901950843200002578720000061492019 00000000000000049576000000000000000000000000090626061920-03001  00000000000000049576260619000000008823575603027  000000000000000000000000000000000000000000000000000000000000000000000000000000000000008823500000000000000000000000000   280619             00000000000000                                                                  000184
1022014714700011600000090349901950843200001429320000051912019 00000000000000043209000000000000000000000000091026061924-04001  00000000000000043209050619000000007021423700000  000000000000000000000000000000000000000000000000000000000000000000000000000000000000000000000000000000000000000000000                          1600000000                                                                  000185
1022014714700011600000090349901950843200002933020000052352019 00000000000000043500000000000000000000000000091026061915-23001  00000000000000043500050619000000006545523700000  000000000000000000000000000000000000000000000000000000000000000000000000000000000000000000000000000000000000000000000                          1600000000                                                                  000186
1022014714700011600000090349901950843200002933020000052362019 00000000000000043519000000000000000000000000091026061915-24001  00000000000000043519050619000000006545523700000  000000000000000000000000000000000000000000000000000000000000000000000000000000000000000000000000000000000000000000000                          1600000000                                                                  000187
1022014714700011600000090349901950843200002231420000057252019 00000000000000048197000000000000000000000000091026061915-27001  00000000000000048197050619000000006500323700000  000000000000000000000000000000000000000000000000000000000000000000000000000000000000000000000000000000000000000000000                          1600000000                                                                  000188
1022014714700011600000090349901950843200001830120000062932019 00000000000000050035000000000000000000000000090201071928-07001  00000000000000050035020719000000007584423704424  000000000008000000000000000000000000000000000000000000000000000000000000000000000000000000000000000000000000000000000                          0000000000                                                                  000189
1022014714700011600000090349901950843200003536220000062942019 00000000000000050043000000000000000000000000090201071908-06001  00000000000000050043020719000000635185523704424  000000000008000000000000000000000000000000000000000000000000000000000000000000000000000000000000000000000000000000000                          0000000000                                                                  000190
1022014714700011600000090349901950843200001033920000062962019 00000000000000050086000000000000000000000000090201071918-27001  00000000000000050086020719000000006902723704424  000000000008000000000000000000000000000000000000000000000000000000000000000000000000000000000000000000000000000000000                          0000000000                                                                  000191
1022014714700011600000090349901950843200001930020000062972019 00000000000000050094000000000000000000000000090201071912-33001  00000000000000050094050719000000011716823704424  000000000008000000000000000000000000000000000000000000000000000000000000000000000000000000000000000000000000000000000                          0000000000                                                                  000192
1022014714700011600000090349901950843200001930020000062982019 00000000000000050108000000000000000000000000090201071918-21001  00000000000000050108050719000000008544623704424  000000000008000000000000000000000000000000000000000000000000000000000000000000000000000000000000000000000000000000000                          0000000000                                                                  000193
1022014714700011600000090349901950843200001930020000062992019 00000000000000050116000000000000000000000000090201071918-22001  00000000000000050116050719000000008544623704424  000000000008000000000000000000000000000000000000000000000000000000000000000000000000000000000000000000000000000000000                          0000000000                                                                  000194
1022014714700011600000090349901950843200001930020000063002019 00000000000000050124000000000000000000000000090201071918-23001  00000000000000050124050719000000008544623704424  000000000008000000000000000000000000000000000000000000000000000000000000000000000000000000000000000000000000000000000                          0000000000                                                                  000195
1022014714700011600000090349901950843200001930020000063012019 00000000000000050132000000000000000000000000090201071918-24001  00000000000000050132050719000000008544623704424  000000000008000000000000000000000000000000000000000000000000000000000000000000000000000000000000000000000000000000000                          0000000000                                                                  000196
1022014714700011600000090349901950843200001930020000063022019 00000000000000050140000000000000000000000000090201071918-25001  00000000000000050140050719000000008544623704424  000000000008000000000000000000000000000000000000000000000000000000000000000000000000000000000000000000000000000000000                          0000000000                                                                  000197
1022014714700011600000090349901950843200001930020000063032019 00000000000000050159000000000000000000000000090201071918-26001  00000000000000050159050719000000008544623704424  000000000008000000000000000000000000000000000000000000000000000000000000000000000000000000000000000000000000000000000                          0000000000                                                                  000198
1022014714700011600000090349901950843200001930020000063042019 00000000000000050167000000000000000000000000090201071920-01001  00000000000000050167050719000000012396423704424  000000000008000000000000000000000000000000000000000000000000000000000000000000000000000000000000000000000000000000000                          0000000000                                                                  000199
1022014714700011600000090349901950843200002231720000063052019 00000000000000050175000000000000000000000000090201071914-08001  00000000000000050175280619000000006535423704424  000000000008000000000000000000000000000000000000000000000000000000000000000000000000000000000000000000000000000000000                          0000000000                                                                  000200
1022014714700011600000090349901950843200002231720000063062019 00000000000000050183000000000000000000000000090201071914-09001  00000000000000050183280619000000006535423704424  000000000008000000000000000000000000000000000000000000000000000000000000000000000000000000000000000000000000000000000                          0000000000                                                                  000201
1022014714700011600000090349901950843200002331320000063072019 00000000000000050191000000000000000000000000090201071918-14001  00000000000000050191080719000000010962323704428  000000000008000000000000000000000000000000000000000000000000000000000000000000000000000000000000000000000000000000000                          0000000000                                                                  000202
1022014714700011600000090349901950843200002832620000063082019 00000000000000050205000000000000000000000000090201071914-03001  00000000000000050205090719000000009343923704424  000000000008000000000000000000000000000000000000000000000000000000000000000000000000000000000000000000000000000000000                          0000000000                                                                  000203
1022014714700011600000090349901950843200003111220000063092019 00000000000000050213000000000000000000000000090201071927-14001  00000000000000050213110719000000007382623704424  000000000008000000000000000000000000000000000000000000000000000000000000000000000000000000000000000000000000000000000                          7600000000                                                                  000204
1022014714700011600000090349901950843200001033920000043472019 00000000000000038000000000000000000000000000090601071918-27001  00000000000000038000220619000000006070810400116  000000000000000000000000000000000000000000000000000000000000000000000000000000000000006210200000000013940000000000000   030719             00000000000000                                                                  000205
1022014714700011600000090349901950843200002932120000046572019 00000000000000041109000000000000000000000000090601071903-07001  00000000000000041109220619000000005914723700396  000000000000000000000000000000000000000000000000000000000000000000000000000000000000006050900000000013620000000000000   030719             00000000000000                                                                  000206
1022014714700011600000090349901950843200002932120000046582019 00000000000000041117000000000000000000000000090601071907-13001  00000000000000041117220619000000006194123700396  000000000000000000000000000000000000000000000000000000000000000000000000000000000000006336800000000014270000000000000   030719             00000000000000                                                                  000207
1022014714700011600000090349901950843200000817620000052882019 00000000000000043799000000000000000000000000090601071909-09001  00000000000000043799220719000000006198500100166  000000000000000000000000000000000000000000000000000000000000000000000000000000000000006198500000000000000000000000000   030719             00000000000000                                                                  000208
1022014714700011600000090349901950843200000817620000052892019 00000000000000043802000000000000000000000000090601071909-15001  00000000000000043802220719000000006198500100166  000000000000000000000000000000000000000000000000000000000000000000000000000000000000006198500000000000000000000000000   030719             00000000000000                                                                  000209
1022014714700011600000090349901950843200000817620000052902019 00000000000000043810000000000000000000000000090601071909-16001  00000000000000043810220719000000006198500100166  000000000000000000000000000000000000000000000000000000000000000000000000000000000000006198500000000000000000000000000   030719             00000000000000                                                                  000210
1022014714700011600000090349901950843200000817620000052912019 00000000000000043829000000000000000000000000090601071909-17001  00000000000000043829220719000000006198500100166  000000000000000000000000000000000000000000000000000000000000000000000000000000000000006198500000000000000000000000000   030719             00000000000000                                                                  000211
1022014714700011600000090349901950843200001730220000054712019 00000000000000045627000000000000000000000000090601071915-10001  00000000000000045627120719000000018942600100166  000000000000000000000000000000000000000000000000000000000000000000000000000000000000018942600000000000000000000000000   030719             00000000000000                                                                  000212
1022014714700011600000090349901950843200001931120000055122019 00000000000000046038000000000000000000000000090601071922-19001  00000000000000046038060719000000008500710403234  000000000000000000000000000000000000000000000000000000000000000000000000000000000000008500700000000000000000000000000   030719             00000000000000                                                                  000213
1022014714700011600000090349901950843200002631620000056212019 00000000000000047123000000000000000000000000090601071912-09001  00000000000000047123120719000000006384523700396  000000000000000000000000000000000000000000000000000000000000000000000000000000000000006384500000000000000000000000000   030719             00000000000000                                                                  000214
1022014714700011600000090349901950843200002831720000056522019 00000000000000047433000000000000000000000000090601071903-04001  00000000000000047433010719000000005811900100166  000000000000000000000000000000000000000000000000000000000000000000000000000000000000005811900000000000000000000000000   030719             00000000000000                                                                  000215
1022014714700011600000090349901950843200003030820000056822019 00000000000000047735000000000000000000000000090601071927-13001  00000000000000047735220719000000006865810401642  000000000000000000000000000000000000000000000000000000000000000000000000000000000000006865800000000000000000000000000   030719             00000000000000                                                                  000216
1022014714700011600000090349901950843200003526120000057142019 00000000000000048057000000000000000000000000090601071903-12001  00000000000000048057220719000000006279823703460  000000000000000000000000000000000000000000000000000000000000000000000000000000000000006279800000000000000000000000000   030719             00000000000000                                                                  000217
1022014714700011600000090349901950843200003526120000057152019 00000000000000048065000000000000000000000000090601071909-10001  00000000000000048065220719000000006598923703460  000000000000000000000000000000000000000000000000000000000000000000000000000000000000006598900000000000000000000000000   030719             00000000000000                                                                  000218
1022014714700011600000090349901950843200003526120000057162019 00000000000000048073000000000000000000000000090601071923-15001  00000000000000048073060719000000005901523703460  000000000000000000000000000000000000000000000000000000000000000000000000000000000000005901500000000000000000000000000   030719             00000000000000                                                                  000219
1022014714700011600000090349901950843200003031120000062522019 00000000000000049843000000000000000000000000090601071922-26001  00000000000000049843010719000000023309300102003  000000000000000000000000000000000000000000000000000000000000000000000000000000000000023309300000000000000000000000000   030719             00000000000000                                                                  000220
1022014714700011600000090349901950843200001629420000062612019 00000000000000049908000000000000000000000000090601071908-29001  00000000000000049908010719000000006521500100166  000000000000000000000000000000000000000000000000000000000000000000000000000000000000006521500000000000000000000000000   030719             00000000000000                                                                  000221
1022014714700011600000090349901950843200001629420000062622019 00000000000000049916000000000000000000000000090601071908-30001  00000000000000049916010719000000006563100100166  000000000000000000000000000000000000000000000000000000000000000000000000000000000000006563100000000000000000000000000   030719             00000000000000                                                                  000222
1022014714700011600000090349901950843200003526120000062752019 00000000000000049991000000000000000000000000090601071909-10001  00000000000000049991050719000000016008923703460  000000000000000000000000000000000000000000000000000000000000000000000000000000000000016008900000000000000000000000000   030719             00000000000000                                                                  000223
1022014714700011600000090349901950843200001830120000062932019 00000000000000050035000000000000000000000000090601071928-07001  00000000000000050035020719000000007584400104990  000000000000000000000000000000000000000000000000000000000000000000000000000000000000007584400000000000000000000000000   030719             00000000000000                                                                  000224
1022014714700011600000090349901950843200001729520000052312019000000000000000043462000000000000000000000000091001071929-10001  00000000000000043462100619000000000690123700000  000000000000000000000000000000000000000000000000000000000000000000000000000000000000000000000000000000000000000000000                          1600000000                                                                  000225
1022014714700011600000090349901950843200002831620000052332019 00000000000000043489000000000000000000000000091001071917-05001  00000000000000043489100619000000035704123700000  000000000000000000000000000000000000000000000000000000000000000000000000000000000000000000000000000000000000000000000                          1600000000                                                                  000226
1022014714700011600000090349901950843200002831620000052342019 00000000000000043497000000000000000000000000091001071917-06001  00000000000000043497100619000000006230623700000  000000000000000000000000000000000000000000000000000000000000000000000000000000000000000000000000000000000000000000000                          1600000000                                                                  000227
1022014714700011600000090349901950843200002431820000057492019 00000000000000048308000000000000000000000000091001071915-08001  00000000000000048308100619000000010529123700000  000000000000000000000000000000000000000000000000000000000000000000000000000000000000000000000000000000000000000000000                          1600000000                                                                  000228
1022014714700011600000090349901950843200002831620000057862019 0000000000000004843P000000000000000000000000091001071917-33001  0000000000000004843P100619000000197930023700000  000000000000000000000000000000000000000000000000000000000000000000000000000000000000000000000000000000000000000000000                          1600000000                                                                  000229
1022014714700011600000090349901950843200001033920000063322019400000000000000050256000000000000000000000000090202071918-27001  00000000000000050256080719000000011202623704424  000000000008000000000000000000000000000000000000000000000000000000000000000000000000000000000000000000000000000000000                          0000000000                                                                  000230
1022014714700011600000090349901950843200001330320000063332019 00000000000000050299000000000000000000000000090202071917-17001  00000000000000050299040719000000009558523704424  000000000008000000000000000000000000000000000000000000000000000000000000000000000000000000000000000000000000000000000                          0000000000                                                                  000231
1022014714700011600000090349901950843200001330920000063342019 00000000000000050302000000000000000000000000090202071916-02001  00000000000000050302080719000000007428123704424  000000000008000000000000000000000000000000000000000000000000000000000000000000000000000000000000000000000000000000000                          7600000000                                                                  000232
1022014714700011600000090349901950843200002232020000063352019 00000000000000050310000000000000000000000000090202071918-30001  00000000000000050310040719000000007501723704424  000000000008000000000000000000000000000000000000000000000000000000000000000000000000000000000000000000000000000000000                          0000000000                                                                  000233
1022014714700011600000090349901950843200002432020000063362019 00000000000000050329000000000000000000000000090202071906-06001  00000000000000050329050719000000007992223704424  000000000008000000000000000000000000000000000000000000000000000000000000000000000000000000000000000000000000000000000                          0000000000                                                                  000234
1022014714700011600000090349901950843200002832120000063372019 00000000000000050337000000000000000000000000090202071905-09001  00000000000000050337020719000000006457623704602  000000000008000000000000000000000000000000000000000000000000000000000000000000000000000000000000000000000000000000000                          0000000000                                                                  000235
1022014714700011600000090349901950843200002331120000034362019 00000000000000033076000000000000000000000000090602071929-03001  00000000000000033076170519000000006392410403234  000000000000000000000000000000000000000000000000000000000000000000000000000000000000006616800000000022440000000000000   040719             00000000000000                                                                  000236
1022014714700011600000090349901950843200001429720000054182019 00000000000000045090000000000000000000000000090602071912-31001  00000000000000045090060719000000005991210401642  000000000000000000000000000000000000000000000000000000000000000000000000000000000000005991200000000000000000000000000   040719             00000000000000                                                                  000237
1022014714700011600000090349901950843200002029820000055222019 00000000000000046135000000000000000000000000090602071923-14001  00000000000000046135060719000000005468610401821  000000000000000000000000000000000000000000000000000000000000000000000000000000000000005468600000000000000000000000000   040719             00000000000000                                                                  000238
1022014714700011600000090349901950843200002130820000055332019 00000000000000046240000000000000000000000000090602071912-14001  00000000000000046240060719000000006347175603027  000000000000000000000000000000000000000000000000000000000000000000000000000000000000006347100000000000000000000000000   040719             00000000000000                                                                  000239
1022014714700011600000090349901950843200002130820000055342019 00000000000000046259000000000000000000000000090602071912-15001  00000000000000046259070719000000006182075603027  000000000000000000000000000000000000000000000000000000000000000000000000000000000000006182000000000000000000000000000   040719             00000000000000                                                                  000240
1022014714700011600000090349901950843200002432120000055982019 00000000000000046895000000000000000000000000090602071905-03001  00000000000000046895060719000000041341423700396  000000000000000000000000000000000000000000000000000000000000000000000000000000000000041341400000000000000000000000000   040719             00000000000000                                                                  000241
1022014714700011600000090349901950843200002932220000056632019 00000000000000047549000000000000000000000000090602071908-24001  00000000000000047549060719000000007708565500655  000000000000000000000000000000000000000000000000000000000000000000000000000000000000007708500000000000000000000000000   040719             00000000000000                                                                  000242
1022014714700011600000090349901950843200001033920000062962019 00000000000000050086000000000000000000000000090602071918-27001  00000000000000050086020719000000006902710401642  000000000000000000000000000000000000000000000000000000000000000000000000000000000000006902700000000000000000000000000   040719             00000000000000                                                                  000243
1022014714700011600000090349901950843200002331320000063072019 00000000000000050191000000000000000000000000090602071918-14001  00000000000000050191080719000000010962310403234  000000000000000000000000000000000000000000000000000000000000000000000000000000000000010962300000000000000000000000000   040719             00000000000000                                                                  000244
102201471470001160000009034990195084320000143062000005257201900000000000000004356P000000000000000000000000091002071912-25001  0000000000000004356P110619000000000741723700000  000000000000000000000000000000000000000000000000000000000000000000000000000000000000000000000000000000000000000000000                          1600000000                                                                  000245
1022014714700011600000090349901950843200001430620000057242019000000000000000048189000000000000000000000000091002071912-25001  00000000000000048189110619000000000741723700000  000000000000000000000000000000000000000000000000000000000000000000000000000000000000000000000000000000000000000000000                          1600000000                                                                  000246
1022014714700011600000090349901950843200001430620000057472019000000000000000048286000000000000000000000000091002071912-25001  00000000000000048286110619000000000741723700000  000000000000000000000000000000000000000000000000000000000000000000000000000000000000000000000000000000000000000000000                          1600000000                                                                  000247
1022014714700011600000090349901950843200001430620000057792019000000000000000048367000000000000000000000000091002071912-25001  00000000000000048367110619000000008159423700000  000000000000000000000000000000000000000000000000000000000000000000000000000000000000000000000000000000000000000000000                          1600000000                                                                  000248
